{
  "contractName": "Voting",
  "abi": [
    {
      "inputs": [],
      "stateMutability": "nonpayable",
      "type": "constructor"
    },
    {
      "inputs": [
        {
          "internalType": "uint256",
          "name": "",
          "type": "uint256"
        }
      ],
      "name": "candidateList",
      "outputs": [
        {
          "internalType": "string",
          "name": "name",
          "type": "string"
        },
        {
          "internalType": "address",
          "name": "candidateAddress",
          "type": "address"
        },
        {
          "internalType": "bool",
          "name": "registered",
          "type": "bool"
        },
        {
          "internalType": "uint256",
          "name": "voteCount",
          "type": "uint256"
        }
      ],
      "stateMutability": "view",
      "type": "function",
      "constant": true
    },
    {
      "inputs": [
        {
          "internalType": "address",
          "name": "",
          "type": "address"
        }
      ],
      "name": "candidates",
      "outputs": [
        {
          "internalType": "uint256",
          "name": "",
          "type": "uint256"
        }
      ],
      "stateMutability": "view",
      "type": "function",
      "constant": true
    },
    {
      "inputs": [],
      "name": "manager",
      "outputs": [
        {
          "internalType": "address",
          "name": "",
          "type": "address"
        }
      ],
      "stateMutability": "view",
      "type": "function",
      "constant": true
    },
    {
      "inputs": [],
      "name": "totalVote",
      "outputs": [
        {
          "internalType": "uint256",
          "name": "",
          "type": "uint256"
        }
      ],
      "stateMutability": "view",
      "type": "function",
      "constant": true
    },
    {
      "inputs": [
        {
          "internalType": "address",
          "name": "",
          "type": "address"
        }
      ],
      "name": "voters",
      "outputs": [
        {
          "internalType": "bool",
          "name": "registered",
          "type": "bool"
        },
        {
          "internalType": "bool",
          "name": "voted",
          "type": "bool"
        }
      ],
      "stateMutability": "view",
      "type": "function",
      "constant": true
    },
    {
      "inputs": [],
      "name": "votingStarted",
      "outputs": [
        {
          "internalType": "bool",
          "name": "",
          "type": "bool"
        }
      ],
      "stateMutability": "view",
      "type": "function",
      "constant": true
    },
    {
      "inputs": [],
      "name": "winnerAddress",
      "outputs": [
        {
          "internalType": "address",
          "name": "",
          "type": "address"
        }
      ],
      "stateMutability": "view",
      "type": "function",
      "constant": true
    },
    {
      "inputs": [
        {
          "internalType": "string",
          "name": "name",
          "type": "string"
        },
        {
          "internalType": "address",
          "name": "candidateAddress",
          "type": "address"
        }
      ],
      "name": "registeredCandidates",
      "outputs": [],
      "stateMutability": "nonpayable",
      "type": "function"
    },
    {
      "inputs": [
        {
          "internalType": "address",
          "name": "voterAddress",
          "type": "address"
        }
      ],
      "name": "registerVoter",
      "outputs": [],
      "stateMutability": "nonpayable",
      "type": "function"
    },
    {
      "inputs": [],
      "name": "startVoting",
      "outputs": [],
      "stateMutability": "nonpayable",
      "type": "function"
    },
    {
      "inputs": [
        {
          "internalType": "address",
          "name": "candidateAddress",
          "type": "address"
        }
      ],
      "name": "putVote",
      "outputs": [],
      "stateMutability": "nonpayable",
      "type": "function"
    },
    {
      "inputs": [],
      "name": "stopVoting",
      "outputs": [],
      "stateMutability": "nonpayable",
      "type": "function"
    },
    {
      "inputs": [],
      "name": "votingStatus",
      "outputs": [
        {
          "internalType": "bool",
          "name": "",
          "type": "bool"
        }
      ],
      "stateMutability": "view",
      "type": "function",
      "constant": true
    },
    {
      "inputs": [],
      "name": "getWinner",
      "outputs": [
        {
          "components": [
            {
              "internalType": "string",
              "name": "name",
              "type": "string"
            },
            {
              "internalType": "address",
              "name": "candidateAddress",
              "type": "address"
            },
            {
              "internalType": "bool",
              "name": "registered",
              "type": "bool"
            },
            {
              "internalType": "uint256",
              "name": "voteCount",
              "type": "uint256"
            }
          ],
          "internalType": "struct Voting.Candidate",
          "name": "candidate",
          "type": "tuple"
        }
      ],
      "stateMutability": "view",
      "type": "function",
      "constant": true
    },
    {
      "inputs": [],
      "name": "getRegisteredCandidates",
      "outputs": [
        {
          "components": [
            {
              "internalType": "string",
              "name": "name",
              "type": "string"
            },
            {
              "internalType": "address",
              "name": "candidateAddress",
              "type": "address"
            },
            {
              "internalType": "bool",
              "name": "registered",
              "type": "bool"
            },
            {
              "internalType": "uint256",
              "name": "voteCount",
              "type": "uint256"
            }
          ],
          "internalType": "struct Voting.Candidate[]",
          "name": "",
          "type": "tuple[]"
        }
      ],
      "stateMutability": "view",
      "type": "function",
      "constant": true
    }
  ],
  "bytecode": "0x608060405234801561001057600080fd5b50336000806101000a81548173ffffffffffffffffffffffffffffffffffffffff021916908373ffffffffffffffffffffffffffffffffffffffff1602179055506125fb806100606000396000f3fe608060405234801561001057600080fd5b50600436106100f55760003560e01c806388fb6f7411610097578063b13c744b11610066578063b13c744b1461024f578063ed7a4e0b14610282578063f1cea4c7146102a0578063fab2f86b146102be576100f5565b806388fb6f74146101b45780638ab66a90146101d05780638e7ea5b214610200578063a3ec138d1461021e576100f5565b806338db6dd3116100d357806338db6dd31461013e578063396b9ae01461015a578063481c6a751461017857806383d948b714610196576100f5565b806319f41a40146100fa5780631ec6b60a1461011857806329cb8e0914610122575b600080fd5b6101026102c8565b60405161010f9190611453565b60405180910390f35b6101206102df565b005b61013c60048036038101906101379190611626565b6103d2565b005b61015860048036038101906101539190611682565b6106de565b005b610162610936565b60405161016f919061188a565b60405180910390f35b610180610aa2565b60405161018d91906118bb565b60405180910390f35b61019e610ac6565b6040516101ab9190611453565b60405180910390f35b6101ce60048036038101906101c99190611682565b610ad9565b005b6101ea60048036038101906101e59190611682565b610f4a565b6040516101f791906118e5565b60405180910390f35b610208610f62565b6040516102159190611963565b60405180910390f35b61023860048036038101906102339190611682565b6111ee565b604051610246929190611985565b60405180910390f35b610269600480360381019061026491906119da565b61122c565b6040516102799493929190611a51565b60405180910390f35b61028a611321565b60405161029791906118bb565b60405180910390f35b6102a8611347565b6040516102b591906118e5565b60405180910390f35b6102c661134d565b005b6000600360009054906101000a900460ff16905090565b60008054906101000a900473ffffffffffffffffffffffffffffffffffffffff1673ffffffffffffffffffffffffffffffffffffffff163373ffffffffffffffffffffffffffffffffffffffff161461036d576040517f08c379a000000000000000000000000000000000000000000000000000000000815260040161036490611b0f565b60405180910390fd5b6000600480549050116103b5576040517f08c379a00000000000000000000000000000000000000000000000000000000081526004016103ac90611b7b565b60405180910390fd5b6001600360006101000a81548160ff021916908315150217905550565b60008054906101000a900473ffffffffffffffffffffffffffffffffffffffff1673ffffffffffffffffffffffffffffffffffffffff163373ffffffffffffffffffffffffffffffffffffffff1614610460576040517f08c379a000000000000000000000000000000000000000000000000000000000815260040161045790611c0d565b60405180910390fd5b60008054906101000a900473ffffffffffffffffffffffffffffffffffffffff1673ffffffffffffffffffffffffffffffffffffffff168173ffffffffffffffffffffffffffffffffffffffff16036104ee576040517f08c379a00000000000000000000000000000000000000000000000000000000081526004016104e590611c9f565b60405180910390fd5b6000600660008373ffffffffffffffffffffffffffffffffffffffff1673ffffffffffffffffffffffffffffffffffffffff1681526020019081526020016000205414610570576040517f08c379a000000000000000000000000000000000000000000000000000000000815260040161056790611d0b565b60405180910390fd5b600060405180608001604052808481526020018373ffffffffffffffffffffffffffffffffffffffff168152602001600115158152602001600081525090506000600480549050036105db576004600181600181540180825580915050039060005260206000209050505b600480549050600660008473ffffffffffffffffffffffffffffffffffffffff1673ffffffffffffffffffffffffffffffffffffffff16815260200190815260200160002081905550600481908060018154018082558091505060019003906000526020600020906003020160009091909190915060008201518160000190816106659190611f37565b5060208201518160010160006101000a81548173ffffffffffffffffffffffffffffffffffffffff021916908373ffffffffffffffffffffffffffffffffffffffff16021790555060408201518160010160146101000a81548160ff021916908315150217905550606082015181600201555050505050565b60008054906101000a900473ffffffffffffffffffffffffffffffffffffffff1673ffffffffffffffffffffffffffffffffffffffff163373ffffffffffffffffffffffffffffffffffffffff161461076c576040517f08c379a00000000000000000000000000000000000000000000000000000000081526004016107639061207b565b60405180910390fd5b60008054906101000a900473ffffffffffffffffffffffffffffffffffffffff1673ffffffffffffffffffffffffffffffffffffffff168173ffffffffffffffffffffffffffffffffffffffff16036107fa576040517f08c379a00000000000000000000000000000000000000000000000000000000081526004016107f1906120e7565b60405180910390fd5b60001515600560008373ffffffffffffffffffffffffffffffffffffffff1673ffffffffffffffffffffffffffffffffffffffff16815260200190815260200160002060000160009054906101000a900460ff16151514610890576040517f08c379a000000000000000000000000000000000000000000000000000000000815260040161088790612153565b60405180910390fd5b6000604051806040016040528060011515815260200160001515815250905080600560008473ffffffffffffffffffffffffffffffffffffffff1673ffffffffffffffffffffffffffffffffffffffff16815260200190815260200160002060008201518160000160006101000a81548160ff02191690831515021790555060208201518160000160016101000a81548160ff0219169083151502179055509050505050565b60606004805480602002602001604051908101604052809291908181526020016000905b82821015610a99578382906000526020600020906003020160405180608001604052908160008201805461098d90611d5a565b80601f01602080910402602001604051908101604052809291908181526020018280546109b990611d5a565b8015610a065780601f106109db57610100808354040283529160200191610a06565b820191906000526020600020905b8154815290600101906020018083116109e957829003601f168201915b505050505081526020016001820160009054906101000a900473ffffffffffffffffffffffffffffffffffffffff1673ffffffffffffffffffffffffffffffffffffffff1673ffffffffffffffffffffffffffffffffffffffff1681526020016001820160149054906101000a900460ff161515151581526020016002820154815250508152602001906001019061095a565b50505050905090565b60008054906101000a900473ffffffffffffffffffffffffffffffffffffffff1681565b600360009054906101000a900460ff1681565b60011515600360009054906101000a900460ff16151514610b2f576040517f08c379a0000000000000000000000000000000000000000000000000000000008152600401610b26906121bf565b60405180910390fd5b60008054906101000a900473ffffffffffffffffffffffffffffffffffffffff1673ffffffffffffffffffffffffffffffffffffffff163373ffffffffffffffffffffffffffffffffffffffff1603610bbd576040517f08c379a0000000000000000000000000000000000000000000000000000000008152600401610bb49061222b565b60405180910390fd5b60011515600560003373ffffffffffffffffffffffffffffffffffffffff1673ffffffffffffffffffffffffffffffffffffffff16815260200190815260200160002060000160009054906101000a900460ff16151514610c53576040517f08c379a0000000000000000000000000000000000000000000000000000000008152600401610c4a90612297565b60405180910390fd5b60001515600560003373ffffffffffffffffffffffffffffffffffffffff1673ffffffffffffffffffffffffffffffffffffffff16815260200190815260200160002060000160019054906101000a900460ff16151514610ce9576040517f08c379a0000000000000000000000000000000000000000000000000000000008152600401610ce090612303565b60405180910390fd5b600115156004600660008473ffffffffffffffffffffffffffffffffffffffff1673ffffffffffffffffffffffffffffffffffffffff1681526020019081526020016000205481548110610d4057610d3f612323565b5b906000526020600020906003020160010160149054906101000a900460ff16151514610da1576040517f08c379a0000000000000000000000000000000000000000000000000000000008152600401610d989061239e565b60405180910390fd5b6004600660008373ffffffffffffffffffffffffffffffffffffffff1673ffffffffffffffffffffffffffffffffffffffff1681526020019081526020016000205481548110610df457610df3612323565b5b90600052602060002090600302016002016000815480929190610e16906123ed565b91905055506001600560003373ffffffffffffffffffffffffffffffffffffffff1673ffffffffffffffffffffffffffffffffffffffff16815260200190815260200160002060000160016101000a81548160ff02191690831515021790555060006004600660008473ffffffffffffffffffffffffffffffffffffffff1673ffffffffffffffffffffffffffffffffffffffff1681526020019081526020016000205481548110610ecb57610eca612323565b5b90600052602060002090600302016002016000815480929190610eed906123ed565b919050559050806002541015610f46578060028190555081600160006101000a81548173ffffffffffffffffffffffffffffffffffffffff021916908373ffffffffffffffffffffffffffffffffffffffff1602179055505b5050565b60066020528060005260406000206000915090505481565b610f6a6113f8565b60008054906101000a900473ffffffffffffffffffffffffffffffffffffffff1673ffffffffffffffffffffffffffffffffffffffff163373ffffffffffffffffffffffffffffffffffffffff1614610ff8576040517f08c379a0000000000000000000000000000000000000000000000000000000008152600401610fef906124a7565b60405180910390fd5b60001515600360009054906101000a900460ff1615151461104e576040517f08c379a000000000000000000000000000000000000000000000000000000000815260040161104590612513565b60405180910390fd5b600460066000600160009054906101000a900473ffffffffffffffffffffffffffffffffffffffff1673ffffffffffffffffffffffffffffffffffffffff1673ffffffffffffffffffffffffffffffffffffffff16815260200190815260200160002054815481106110c3576110c2612323565b5b90600052602060002090600302016040518060800160405290816000820180546110ec90611d5a565b80601f016020809104026020016040519081016040528092919081815260200182805461111890611d5a565b80156111655780601f1061113a57610100808354040283529160200191611165565b820191906000526020600020905b81548152906001019060200180831161114857829003601f168201915b505050505081526020016001820160009054906101000a900473ffffffffffffffffffffffffffffffffffffffff1673ffffffffffffffffffffffffffffffffffffffff1673ffffffffffffffffffffffffffffffffffffffff1681526020016001820160149054906101000a900460ff16151515158152602001600282015481525050905090565b60056020528060005260406000206000915090508060000160009054906101000a900460ff16908060000160019054906101000a900460ff16905082565b6004818154811061123c57600080fd5b906000526020600020906003020160009150905080600001805461125f90611d5a565b80601f016020809104026020016040519081016040528092919081815260200182805461128b90611d5a565b80156112d85780601f106112ad576101008083540402835291602001916112d8565b820191906000526020600020905b8154815290600101906020018083116112bb57829003601f168201915b5050505050908060010160009054906101000a900473ffffffffffffffffffffffffffffffffffffffff16908060010160149054906101000a900460ff16908060020154905084565b600160009054906101000a900473ffffffffffffffffffffffffffffffffffffffff1681565b60025481565b60008054906101000a900473ffffffffffffffffffffffffffffffffffffffff1673ffffffffffffffffffffffffffffffffffffffff163373ffffffffffffffffffffffffffffffffffffffff16146113db576040517f08c379a00000000000000000000000000000000000000000000000000000000081526004016113d2906125a5565b60405180910390fd5b6000600360006101000a81548160ff021916908315150217905550565b604051806080016040528060608152602001600073ffffffffffffffffffffffffffffffffffffffff168152602001600015158152602001600081525090565b60008115159050919050565b61144d81611438565b82525050565b60006020820190506114686000830184611444565b92915050565b6000604051905090565b600080fd5b600080fd5b600080fd5b600080fd5b6000601f19601f8301169050919050565b7f4e487b7100000000000000000000000000000000000000000000000000000000600052604160045260246000fd5b6114d58261148c565b810181811067ffffffffffffffff821117156114f4576114f361149d565b5b80604052505050565b600061150761146e565b905061151382826114cc565b919050565b600067ffffffffffffffff8211156115335761153261149d565b5b61153c8261148c565b9050602081019050919050565b82818337600083830152505050565b600061156b61156684611518565b6114fd565b90508281526020810184848401111561158757611586611487565b5b611592848285611549565b509392505050565b600082601f8301126115af576115ae611482565b5b81356115bf848260208601611558565b91505092915050565b600073ffffffffffffffffffffffffffffffffffffffff82169050919050565b60006115f3826115c8565b9050919050565b611603816115e8565b811461160e57600080fd5b50565b600081359050611620816115fa565b92915050565b6000806040838503121561163d5761163c611478565b5b600083013567ffffffffffffffff81111561165b5761165a61147d565b5b6116678582860161159a565b925050602061167885828601611611565b9150509250929050565b60006020828403121561169857611697611478565b5b60006116a684828501611611565b91505092915050565b600081519050919050565b600082825260208201905092915050565b6000819050602082019050919050565b600081519050919050565b600082825260208201905092915050565b60005b838110156117155780820151818401526020810190506116fa565b60008484015250505050565b600061172c826116db565b61173681856116e6565b93506117468185602086016116f7565b61174f8161148c565b840191505092915050565b611763816115e8565b82525050565b61177281611438565b82525050565b6000819050919050565b61178b81611778565b82525050565b600060808301600083015184820360008601526117ae8282611721565b91505060208301516117c3602086018261175a565b5060408301516117d66040860182611769565b5060608301516117e96060860182611782565b508091505092915050565b60006118008383611791565b905092915050565b6000602082019050919050565b6000611820826116af565b61182a81856116ba565b93508360208202850161183c856116cb565b8060005b85811015611878578484038952815161185985826117f4565b945061186483611808565b925060208a01995050600181019050611840565b50829750879550505050505092915050565b600060208201905081810360008301526118a48184611815565b905092915050565b6118b5816115e8565b82525050565b60006020820190506118d060008301846118ac565b92915050565b6118df81611778565b82525050565b60006020820190506118fa60008301846118d6565b92915050565b6000608083016000830151848203600086015261191d8282611721565b9150506020830151611932602086018261175a565b5060408301516119456040860182611769565b5060608301516119586060860182611782565b508091505092915050565b6000602082019050818103600083015261197d8184611900565b905092915050565b600060408201905061199a6000830185611444565b6119a76020830184611444565b9392505050565b6119b781611778565b81146119c257600080fd5b50565b6000813590506119d4816119ae565b92915050565b6000602082840312156119f0576119ef611478565b5b60006119fe848285016119c5565b91505092915050565b600082825260208201905092915050565b6000611a23826116db565b611a2d8185611a07565b9350611a3d8185602086016116f7565b611a468161148c565b840191505092915050565b60006080820190508181036000830152611a6b8187611a18565b9050611a7a60208301866118ac565b611a876040830185611444565b611a9460608301846118d6565b95945050505050565b7f4f6e6c7920746865206d616e616765722063616e20737461727420746865207660008201527f6f74696e67000000000000000000000000000000000000000000000000000000602082015250565b6000611af9602583611a07565b9150611b0482611a9d565b604082019050919050565b60006020820190508181036000830152611b2881611aec565b9050919050565b7f4e6f2063616e6469646174657320726567697374657265640000000000000000600082015250565b6000611b65601883611a07565b9150611b7082611b2f565b602082019050919050565b60006020820190508181036000830152611b9481611b58565b9050919050565b7f4f6e6c7920746865206d616e616765722063616e20726567697374657220636160008201527f6e64696461746573000000000000000000000000000000000000000000000000602082015250565b6000611bf7602883611a07565b9150611c0282611b9b565b604082019050919050565b60006020820190508181036000830152611c2681611bea565b9050919050565b7f546865206d616e616765722063616e6e6f7420626520612063616e646964617460008201527f6500000000000000000000000000000000000000000000000000000000000000602082015250565b6000611c89602183611a07565b9150611c9482611c2d565b604082019050919050565b60006020820190508181036000830152611cb881611c7c565b9050919050565b7f43616e64696461746520616c7265616479207265676973746572656400000000600082015250565b6000611cf5601c83611a07565b9150611d0082611cbf565b602082019050919050565b60006020820190508181036000830152611d2481611ce8565b9050919050565b7f4e487b7100000000000000000000000000000000000000000000000000000000600052602260045260246000fd5b60006002820490506001821680611d7257607f821691505b602082108103611d8557611d84611d2b565b5b50919050565b60008190508160005260206000209050919050565b60006020601f8301049050919050565b600082821b905092915050565b600060088302611ded7fffffffffffffffffffffffffffffffffffffffffffffffffffffffffffffffff82611db0565b611df78683611db0565b95508019841693508086168417925050509392505050565b6000819050919050565b6000611e34611e2f611e2a84611778565b611e0f565b611778565b9050919050565b6000819050919050565b611e4e83611e19565b611e62611e5a82611e3b565b848454611dbd565b825550505050565b600090565b611e77611e6a565b611e82818484611e45565b505050565b5b81811015611ea657611e9b600082611e6f565b600181019050611e88565b5050565b601f821115611eeb57611ebc81611d8b565b611ec584611da0565b81016020851015611ed4578190505b611ee8611ee085611da0565b830182611e87565b50505b505050565b600082821c905092915050565b6000611f0e60001984600802611ef0565b1980831691505092915050565b6000611f278383611efd565b9150826002028217905092915050565b611f40826116db565b67ffffffffffffffff811115611f5957611f5861149d565b5b611f638254611d5a565b611f6e828285611eaa565b600060209050601f831160018114611fa15760008415611f8f578287015190505b611f998582611f1b565b865550612001565b601f198416611faf86611d8b565b60005b82811015611fd757848901518255600182019150602085019450602081019050611fb2565b86831015611ff45784890151611ff0601f891682611efd565b8355505b6001600288020188555050505b505050505050565b7f4f6e6c7920746865206d616e616765722063616e20726567697374657220766f60008201527f7465727300000000000000000000000000000000000000000000000000000000602082015250565b6000612065602483611a07565b915061207082612009565b604082019050919050565b6000602082019050818103600083015261209481612058565b9050919050565b7f546865206d616e616765722063616e6e6f74206265206120766f746572000000600082015250565b60006120d1601d83611a07565b91506120dc8261209b565b602082019050919050565b60006020820190508181036000830152612100816120c4565b9050919050565b7f566f74657220616c726561647920726567697374657265640000000000000000600082015250565b600061213d601883611a07565b915061214882612107565b602082019050919050565b6000602082019050818103600083015261216c81612130565b9050919050565b7f566f74696e6720686173206e6f74207374617274656420796574000000000000600082015250565b60006121a9601a83611a07565b91506121b482612173565b602082019050919050565b600060208201905081810360008301526121d88161219c565b9050919050565b7f546865206d616e616765722063616e6e6f7420766f7465000000000000000000600082015250565b6000612215601783611a07565b9150612220826121df565b602082019050919050565b6000602082019050818103600083015261224481612208565b9050919050565b7f566f746572206e6f742072656769737465726564000000000000000000000000600082015250565b6000612281601483611a07565b915061228c8261224b565b602082019050919050565b600060208201905081810360008301526122b081612274565b9050919050565b7f416c726561647920766f74656400000000000000000000000000000000000000600082015250565b60006122ed600d83611a07565b91506122f8826122b7565b602082019050919050565b6000602082019050818103600083015261231c816122e0565b9050919050565b7f4e487b7100000000000000000000000000000000000000000000000000000000600052603260045260246000fd5b7f43616e646964617465206e6f7420726567697374657265640000000000000000600082015250565b6000612388601883611a07565b915061239382612352565b602082019050919050565b600060208201905081810360008301526123b78161237b565b9050919050565b7f4e487b7100000000000000000000000000000000000000000000000000000000600052601160045260246000fd5b60006123f882611778565b91507fffffffffffffffffffffffffffffffffffffffffffffffffffffffffffffffff820361242a576124296123be565b5b600182019050919050565b7f4f6e6c7920746865206d616e616765722063616e206465636c6172652077696e60008201527f6e65720000000000000000000000000000000000000000000000000000000000602082015250565b6000612491602383611a07565b915061249c82612435565b604082019050919050565b600060208201905081810360008301526124c081612484565b9050919050565b7f566f74696e67206973206e6f742079657420636f6d706c657465640000000000600082015250565b60006124fd601b83611a07565b9150612508826124c7565b602082019050919050565b6000602082019050818103600083015261252c816124f0565b9050919050565b7f4f6e6c7920746865206d616e616765722063616e2073746f702074686520766f60008201527f74696e6700000000000000000000000000000000000000000000000000000000602082015250565b600061258f602483611a07565b915061259a82612533565b604082019050919050565b600060208201905081810360008301526125be81612582565b905091905056fea26469706673582212207719255682a1fe5364dd4bcd330eb3596e4789a6e2cd4b08ad1a9953adf9e38464736f6c63430008110033",
  "immutableReferences": {},
  "source": "// spdx-license-identifier:MIT\r\n\r\npragma solidity ^0.8.0;\r\n\r\ncontract Voting{\r\n    address public manager;\r\n    address public winnerAddress;\r\n    uint public totalVote;\r\n    bool public votingStarted;\r\n\r\n    struct Candidate{\r\n        string name;\r\n        address candidateAddress;\r\n        bool registered;\r\n        uint voteCount;\r\n    }\r\n\r\n    struct Voter{\r\n        bool registered;\r\n        bool voted;\r\n    }\r\n\r\n    Candidate[] public candidateList;\r\n    mapping(address => Voter) public voters;\r\n    mapping(address=>uint) public candidates;\r\n\r\n    constructor(){\r\n        manager = msg.sender;\r\n    }\r\n\r\n    function registeredCandidates(string memory name, address candidateAddress) public {\r\n        require(msg.sender == manager, \"Only the manager can register candidates\");\r\n        require(candidateAddress != manager, \"The manager cannot be a candidate\");\r\n        require(candidates[candidateAddress] == 0, \"Candidate already registered\");\r\n\r\n        Candidate memory candidate=Candidate({\r\n            name:name,\r\n            candidateAddress:candidateAddress,\r\n            registered: true,\r\n            voteCount: 0\r\n        });\r\n        if (candidateList.length ==0){\r\n            candidateList.push();\r\n        }\r\n        candidates[candidateAddress] = candidateList.length;\r\n        candidateList.push(candidate);\r\n\r\n    }\r\n\r\n    function registerVoter(address voterAddress)public {\r\n        require(msg.sender == manager, \"Only the manager can register voters\");\r\n        require(voterAddress != manager, \"The manager cannot be a voter\");\r\n        require(voters[voterAddress].registered == false, \"Voter already registered\");\r\n\r\n        Voter memory voter = Voter({\r\n            registered: true,\r\n            voted: false\r\n        });\r\n\r\n        voters[voterAddress] = voter;\r\n    }\r\n\r\n    function startVoting() public {\r\n        require(msg.sender == manager, \"Only the manager can start the voting\");\r\n        require(candidateList.length > 0, \"No candidates registered\");\r\n\r\n        votingStarted = true;\r\n    }\r\n\r\n    function putVote(address candidateAddress) public {\r\n        require(votingStarted == true, \"Voting has not started yet\");\r\n        require(msg.sender != manager, \"The manager cannot vote\");\r\n        require(voters[msg.sender].registered == true, \"Voter not registered\");\r\n        require(voters[msg.sender].voted == false, \"Already voted\");\r\n        require(candidateList[candidates[candidateAddress]].registered == true, \"Candidate not registered\");\r\n\r\n        candidateList[candidates[candidateAddress]].voteCount++;\r\n        voters[msg.sender].voted = true;\r\n\r\n        uint candidateVote = candidateList[candidates[candidateAddress]].voteCount++;\r\n        if(totalVote < candidateVote){\r\n            totalVote = candidateVote;\r\n            winnerAddress = candidateAddress;\r\n        }\r\n    }\r\n\r\n    function stopVoting() public {\r\n        require(msg.sender == manager, \"Only the manager can stop the voting\");\r\n\r\n        votingStarted = false;\r\n    }\r\n\r\n    function votingStatus() public view returns(bool){\r\n        return votingStarted;\r\n    }\r\n\r\n    function getWinner() public view returns(Candidate memory candidate){\r\n        require(msg.sender == manager, \"Only the manager can declare winner\");\r\n        require(votingStarted == false, \"Voting is not yet completed\");\r\n\r\n        return candidateList[candidates[winnerAddress]];\r\n    }\r\n\r\n    function getRegisteredCandidates() public view returns (Candidate[] memory){\r\n        return candidateList;\r\n    }\r\n\r\n}",
  "sourcePath": "C:\\Users\\HP\\Desktop\\voting-dapp\\contracts\\Voting.sol",
  "compiler": {
    "name": "solc",
    "version": "0.8.17+commit.8df45f5f.Emscripten.clang"
  },
  "schemaVersion": "3.4.12",
  "updatedAt": "2023-03-06T14:18:25.008Z",
  "networkType": "ethereum",
  "devdoc": {
    "kind": "dev",
    "methods": {},
    "version": 1
  },
  "userdoc": {
    "kind": "user",
    "methods": {},
    "version": 1
  }
}